:020000040800F2
:1000000000A00020351D00087D1D00087D1D000892
:100010007D1D00087D1D00087D1D000800000000FA
:100020000000000000000000000000007D1D00082E
:100030007D1D0008000000007D1D00087D1D0008DA
:1000400000000000000000000000000000000000B0
:1000500000000000000000000000000000000000A0
:100060000000000000000000000000000000000090
:100070000000000000000000000000000000000080
:100080000000000000000000000000000000000070
:100090000000000000000000000000000000000060
:1000A0000000000000000000000000000000000050
:1000B0000000000000000000000000000000000040
:1000C0000000000000000000000000000000000030
:1000D0000000000000000000000000000000000020
:1000E0000000000000000000000000000000000010
:1000F0000000000000000000000000000000000000
:1001000000000000000000000000000000000000EF
:1001100000000000000000000000000000000000DF
:1001200000000000000000000000000000000000CF
:1001300000000000000000000000000000000000BF
:1001400000000000000000000000000000000000AF
:10015000000000000000000000000000000000009F
:10016000000000000000000000000000000000008F
:10017000000000000000000000000000000000007F
:08018000000000000000000077
:1001900010B5054C237833B9044B13B10448AFF3C1
:1001A00000800123237010BD6400002000000000C7
:1001B000842E000808B5034B1BB103490348AFF375
:1001C000008008BD0000000068000020842E0008A8
:1001D00001F0FF01102A2BDB10F0070F08D010F8F8
:1001E000013B013A8B422DD010F0070F42B3F6D1FC
:1001F000F0B441EA012141EA014122F007047FF015
:1002000000070023F0E80256083C85EA010586EA6B
:10021000010685FA47F5A3FA87F586FA47F6A5FAA7
:1002200087F68EB9EED1F0BC01F0FF0102F00702B3
:1002300032B110F8013B013A83EA010313B1F8D15E
:100240000020704701387047002D06BF354603383F
:10025000073815F0010F07D1013015F4807F02BF78
:10026000013015F4C03F0130F0BC0138704700BFC9
:1002700008B5054B0178197002460121722000F083
:1002800085FD002008BD00BF8000002070B5064E2F
:1002900004460025024604217220756000F076FDB8
:1002A0002368B360284670BD8000002010B508495F
:1002B0000246431E0F3013F8014F01F8014B8342F1
:1002C000F9D11021722000F061FD002010BD00BFA7
:1002D0008C00002008B501F02BFD002008BD0000B7
:1002E00010B5064B04460068186201F0A3FD2246D3
:1002F0000421722000F04AFD002010BD8000002083
:100300000D4B072283F82420002283F8272083F84E
:10031000282083F8292083F82A2083F82B20012223
:1003200083F82C2083F8252083F826207F2283F869
:10033000332083F83420704780000020F0B5244833
:1003400090F82430C618002400F1350586F83540B1
:1003500000F1250C01212A46E7B2BB4212D8C5188C
:1003600090F8336095F835400444490884F8B83073
:100370000133DCB252FA83F2A64214D8FF2380F88C
:10038000B830F0BD471805F8011B87F8B8401CF8D5
:10039000017B27B196F835704F4086F835704900DB
:1003A000C9B20134D8E712F8013C8B4221BF4B405F
:1003B00095F83570DBB287EA430338BF5B00DBB2E8
:1003C00002F8013B034483F8B8400134E4B2D3E7B8
:1003D000800000202DE9F04F884AADF2347D63ADF6
:1003E000002392F833002B7001238DF80030EB725C
:1003F0008DF801309E464FF00B0C471E01240CFB7C
:100400000356311911F8011C4900B1FBF0F800FB4B
:10041000181131554900B1FBF0F800FB181196F89E
:100420000080C9B201348845E4B2EAD10DF8034036
:1004300000240134E4B20026012199421CD8F6B907
:1004400001EB810801EB48081DF801A0A844B14662
:1004500007E018F8016BA6EB040BDBF1000646EB96
:100460000B065FFA89FBDA4503D909F10109002E71
:10047000EFD00131C9B2E0E7002E00F0B380BC42FA
:10048000D7DB0A2182F83B110027152182F83C11A5
:100490003C46012121AE8B4215D24FF0000E0123C4
:1004A0000DF584785FFA8EF18C4252D916F801CBA3
:1004B0000CEB8C010CEB41011DF80CC09C44294451
:1004C0005FFA8CFC40E001EB810E4FF0000C01EB79
:1004D0004E0E4FF000091DF801A006F804C0AE440E
:1004E000CC465FFA89F8C24502D9BCF1000F0DD0A5
:1004F00016F804C0BCF1000F05D01DF80CC0013483
:100500006744FFB2E4B20131C9B2C4E71EF801BBCF
:100510004FF00108C34508F101085FFA88F806BFEB
:1005200031554FF0010C4FF0000CB8F1150F02D00F
:10053000BCF1000FEED009F10109D2E711F8019BDF
:1005400008F803900133DBB26345F7D10EF1010ED9
:10055000A8E792F83430DFF8A8C042ADDB1B82F880
:100560003D316B781344012693F8353082F83E31E3
:1005700082F83F610223BB4203D90DF2347DBDE80E
:10058000F08FD11803F1FF3E15F8038081F83E612A
:100590005CFA8EFEF44511D192F83E1111440133FC
:1005A00091F9B810414491FBF0F400FB141111448F
:1005B000DBB291F8351082F83E11DCE79EF800407E
:1005C0001EF8011C5CB1144494F9B840444494FBF7
:1005D000F0F900FB1944144494F8354061400EF8DA
:1005E0000119D7E70133DBB20CFB03F1BC426C54B9
:1005F0000DF803E0FFF602AF43E700BF80000020E4
:10060000BE0100202DE9F047264C94F83D5194F8A6
:100610003460761B26EAE672002104F2C11001F074
:1006200001FC94F83E71003F05F1FF3518BF01272A
:1006300004F5117904F2C11804F59F7A6B1C01D1FD
:10064000BDE8F087721EA11815F8093091F8C111A4
:100650008B4213D1002EC6F10200A6F10201D8BFD1
:100660000120014410444144D8BF0022404401F01D
:10067000BFFB002384F8C131013DDFE74B4008EBAD
:100680000201002A02DC84F8C171F5E712F80AC001
:1006900011F8010C013ABCF1000F00D0584001F8EC
:1006A0000109EEE7800000202DE9F04FBF4BADF2CD
:1006B0001C5D93F83B2102925200D2B201920027B6
:1006C0006AAA93F8349093F8336001259046BA46AD
:1006D0000198E9B2884280F091809A685968C2EB2B
:1006E000C2020A445A600024002F00F0B481A042E4
:1006F00000F1FF3598F801308DF81D30EDB208BFDC
:10070000254601232A46FF210DF235308DF84A3364
:100710008DF81C408DF8344301F084FB2A462146B5
:100720000DF24B3001F07EFBDFF880A28DF8A04087
:1007300049ABFF228DF8A1408DF824218DF8254189
:100740000DF11D080DF1A109022500940493009CF0
:1007500098F900B019F9012B631CDBB20093BBF1CF
:10076000FF3F05F1FF330393434608F101086DD0C5
:10077000013B13F90119013140F0BB80002C40F01E
:10078000B58028AB1857039BC118091B8A4240F358
:10079000C88089F800201623CDAA03FB0522059204
:1007A0000021019A059801F03DFB28ABCDAA13F971
:1007B00004C0162306EB0B0E002003FB0421C2B27B
:1007C000624540F3B480039819F901CC1622CDABF1
:1007D00002FB0534002102FB0032CBB2634501F17C
:1007E000010142DCE05C12F803E080EA0E00E05414
:1007F000D056504490F8B800D054EEE70020DFF80F
:10080000B0E182F801A084465FFA8CF4A14592F928
:1008100001100AD8002918BF47F001071944013513
:1008200091F8B81002F8011F52E7B0FBF6F406FB8E
:1008300014041C441EF801BB94F8354014FB0BF45F
:100840004C4054700CF1010C2844DDE71621CDAB6F
:100850006C1E01FB043489F80020002001FB0531E7
:10086000C3B2934200F1010034DD99F90000009B0E
:10087000049A1B1AAB54DDE90023934240F28A80AC
:100880006AAB1624EB565A1C16BF5344002393F947
:10089000353088F80030CDAB3A460DF5D47C04FBFA
:1008A0000534824298F900105BDD514491F8B8306C
:1008B00088F80030DDE9002393426BD9029B98420F
:1008C00005F101057FF743AF4FF0FF300DF21C5DDE
:1008D000BDE8F08F14F903C001F803C014F903C098
:1008E000D4449CF8B8C004F803C0B9E7013CE4B2B2
:1008F0003FE7002C3FF445AF631EDBB207A913F9B5
:1009000001C0BCF1FF3FD8B208D0DDF810C01CF91F
:1009100004E013F90CC0E645B8BF0446013BEED233
:100920002FE7009B1B1B034489F8003033E711F9C4
:1009300002B0BBF1FF3F12D0039B1A4407AB121B5E
:100940001B57AEEB03035B4493FBF6FB06FB1B3329
:100950005344DDF814B093F835300BF80230013011
:100960002DE7AB1A1CF903E0BEF1FF3F0FD0A356F1
:100970006BB1534493F9B830734493FBF6FE06FB16
:100980001E33534493F835304B4088F80030013221
:10099000D2B286E7029B984296DC1623CDAADFF8F6
:1009A0000CC0002103FB052309E000BF80000020EC
:1009B000470300209C56644494F8B8409C54CAB243
:1009C000824201F10101F5DD1621CDAC3B46ACAA16
:1009D00001FB054583421BDDDFF880E0394600243A
:1009E0000DF52C7C0DF50B788E4231D21B4D00227B
:1009F0008BACD3B2834202F10102BFF667AFE35C76
:100A00002B4493F8C71281F0010183F8C712F0E775
:100A1000E95CD1540133DBB2DCE71CF8023013444B
:100A2000B3FBF6F906FB19330CF8023073440132BC
:100A300093F835305D40EDB2D2B28242EDDD25B99A
:100A4000731A08F804300134E4B20131C9B2CBE7BB
:100A50003D463A46F1E7384638E700BF80000020BF
:100A6000034B0022C3E9D322C3E9D522704700BF5C
:100A700080000020F0B41B4C00F10C0204F5507310
:100A800000F11C071D46164652F804CF54F8041B0B
:100A9000BA4281EA0C0145F8041BF5D1043850F83C
:100AA000042F1968B04282EA010243F8042BF6D100
:100AB0000D4890F8345000F2C72400218BB29D42BB
:100AC00002D8F0BCFFF7F0BD00EBD30203F0070340
:100AD00092F84C2342FA03F303F0010304F8013BBC
:100AE0000131EBE78C00002080000020F0B50023EE
:100AF000104E1C4696F834508D4208DC13F0070265
:100B00001FBFDB10C2F108021441C454F0BD555C94
:100B10000133ED0105EB540413F0070508BF00EBAA
:100B2000E307E4B208BF07F8014C01F1010108BF77
:100B30002C46DFE7800000201FB504466946FFF71A
:100B40008FFF00F083FA69462046FFF793FF00F01D
:100B500084FA0A4A92F83D3192F83410C91A2046B4
:100B600002F2C722C9B2FFF7C1FF2246102172204C
:100B700000F00CF9002004B010BD00BF8000002080
:100B800070B5224C94F83D610546002104F51170C2
:100B90008BB29E4225D80023184694F834109AB29E
:100BA00091422AD8FFF72EFD94F83D2194F83400A5
:100BB0000021801A8BB2834201F1010120DB144C29
:100BC000A4F18301204401F005F9224628460021C2
:100BD000FFF78CFF2A461021722000F0D7F8002082
:100BE00070BDDA0803F00703AA5C42FA03F303F0CE
:100BF000010300F8013B0131CAE7E8540133CCE7B7
:100C0000234493F8C16183F8C762D3E780000020D2
:100C10004703002008B500F077F900F0B5F900F0BF
:100C2000F1F9FFF76DFBFFF789FBFFF7D3FB174BDC
:100C30001748186201F0FEF800F092F8154A1021EA
:100C40006B2000F089F8144A2021702000F084F80D
:100C5000124A0421612000F07FF8114A102165201A
:100C600000F07AF80F4A0121742000F075F80E4A5E
:100C70000421732000F070F80C4A012312216D202A
:100C800000F054F800F0DCF8FCE700BF8000002022
:100C900023C45903AD020008390B00088D02000877
:100CA000810B000871020008E1020008D50200086B
:100CB00001207047F0B500254F1C854201DB002064
:100CC00021E017F8154011F81530A4F13006F6B2FE
:100CD000092E0CD81670A3F13004E6B2092E15D8EF
:100CE000137843EA0413137001350132E5E7A4F1E8
:100CF0004106052E02D8373C1470ECE7A4F16106DA
:100D0000052E01D90120F0BD573CF5E7A3F14104C0
:100D1000052C02D8A3F13704E2E7A3F16104052C06
:100D2000F0D81478573B44EA0313DCE770B5094E5A
:100D300034680F2C0BDCFF2909D806EB0415C5E934
:100D40000212013428712B743460002070BD012020
:100D5000FCE700BF640400200023FFF7E7BF0000AA
:100D600008B5074A00217620FFF7F6FF054A7720ED
:100D7000FFF7F2FFBDE80840034A7920FFF7ECBF18
:100D8000B10C0008F10D0008CD0D0008F8B51446AF
:100D90000E4600F083F90C4F651EC4F1010463197F
:100DA0009E4204DCBDE8F8400A2000F077B915F84F
:100DB000013F1B09F85C00F071F92B7803F00F0379
:100DC000F85C00F06BF9EAE79C2E000807B5074BCA
:100DD0000DF107021B688DF8073001217220FFF723
:100DE000D5FF002003B05DF804FB00BF64040020C1
:100DF00070B5124C21688CB0CDB20020C3B2AB42AA
:100E000000F1010009DB01EB41016A46C9B2722021
:100E1000FFF7BCFF00200CB070BD03EB43020CAE2B
:100E200004EB031332441E7902F8306C9E681B7C7D
:100E300002F82F6C02F82E3CE0E700BF64040020AB
:100E40002DE9F0412F4DADF5427D00F00DF92A4618
:100E5000002352F8041B994204DC07D10DF5427DB2
:100E6000BDE8F0811C01A45C84423ED105EB031473
:100E70001E01237CDB0714D500238DF8083000F019
:100E8000F3F88DF8080100F0EFF802AA8DF80901D7
:100E900042A90120FFF70EFF0028DFD19DF808309E
:100EA000A36042AF002405EB0608D8F80830B4EB85
:100EB000430F1CD300F0D8F80A2801D00D28CDD15B
:100EC000354402AAAC6842A92046FFF7F3FE002889
:100ED000C4D1E1B2EB6802A8984701AA8DF80400DA
:100EE00001217A20FFF752FFB8E70133B3E700F0A2
:100EF000BBF80A28B2D00D28B0D007F8010B013496
:100F0000D3E700BF6404002070B596B00024032628
:100F10004FF4A0230CA80125CDE90C631094149480
:100F200000F0D4F80F23214602A8CDE90235CDE91F
:100F30000444069400F038FB114B5A6942F4002235
:100F40005A615B69CDE9094603F400230D4C019316
:100F5000019B07A94FF4C0432046CDE9073500F0B7
:100F6000C9FB2A4620464FF4005100F087FC2A4670
:100F70004FF48041204600F081FC16B070BD00BFE8
:100F8000001002400008004810B54FF4C06288B05D
:100F90000223CDE9032301210323CDE90513164CD8
:100FA00007230793636943F400336361636903F4C0
:100FB0000033019303A94FF09040019B00F09AFB8E
:100FC0000E48DFF83CC04FF41643C0E900C30023CD
:100FD000C0E90233036183610C234361A36943F4D5
:100FE0008043A361A36903F480430293029B00F052
:100FF00099FD08B010BD00BF001002406805002038
:1010000000380140104B30B55A6942F400325A6141
:101010005B6987B003F400330093009B4FF4805466
:101020000123CDE901430025032301A94FF090409E
:10103000CDE9035300F05EFB2A4621464FF0904075
:1010400000F01CFC07B030BD0010024001224FF43C
:1010500080514FF0904000F011BC00224FF48051BD
:101060004FF0904000F00ABC37B50A4D0A4C41F2EF
:10107000883301220DF10701284600F0D4FD18B98C
:101080009DF8070003B030BD236A43F008032362D4
:10109000EDE700BF680500200038014007B541F2C8
:1010A00088338DF8070001220DF10701024800F096
:1010B00064FD03B05DF804FB68050020024B18686E
:1010C000421C1A60704700BFD805002003682DE954
:1010D000F341D907044611D423689A0700F18680AA
:1010E00023681E0700F1F48023685D0700F140814A
:1010F000E269002A40F0CB81002021E09A494B6848
:1011000003F00C03042B07D04B6803F00C03082BEF
:1011100019D14B68DB0316D54FF4003393FAA3F2D1
:10112000096893FAA3F3B3FA83F303F01F030122D0
:1011300002FA03F30B42CFD06368002BCCD101201D
:1011400002B0BDE8F0816268B2F5803F24D10B683F
:1011500043F480330B60CB6AA06823F00F03034392
:10116000CB624AB3FFF7AAFF4FF4003605460127CA
:1011700096FAA6F30A6896FAA6F3B3FA83F303F095
:101180001F0307FA03F31342A6D1FFF797FF401B93
:101190006428EDD90320D3E70B6832B923F48033F8
:1011A0000B600B6823F48023D4E7B2F5A02FF5D1B0
:1011B00043F480230B60CAE7FFF780FF4FF400364B
:1011C0000546012796FAA6F30A6896FAA6F3B3FA3B
:1011D00083F303F01F0307FA03F313423FF47CAFDA
:1011E000FFF76CFF401B6428ECD9D3E75E494B68DE
:1011F00013F00C0F07D04B6803F00C03082B21D120
:101200004B68DF031ED4022393FAA3F2086893FA13
:10121000A3F3B3FA83F303F01F03012202FA03F3EB
:10122000034202D02369934289D10868F82393FAD4
:10123000A3F3B3FA83F26369934020F0F8021343F7
:101240000B604DE72269012502B395FAA5F3B3FAC5
:1012500083F303F1845303F584139B0002271D607D
:10126000FFF72CFF064697FAA7F30A6897FAA7F349
:10127000B3FA83F303F01F0305FA03F31342D4D147
:10128000FFF71CFF801B0228EDD983E795FAA5F331
:10129000B3FA83F303F1845303F584139B0002270D
:1012A0001A60FFF70BFF064697FAA7F30A6897FA4A
:1012B000A7F3B3FA83F303F01F0305FA03F3134212
:1012C0003FF40EAFFFF7FAFE801B0228ECD961E76E
:1012D000A269254D2548012112B391FAA1F3B3FA71
:1012E00083F303449B0002261960FFF7E7FE0746DD
:1012F00096FAA6F396FAA6F396FAA6F36A6A96FA0F
:10130000A6F3B3FA83F303F01F0301FA03F31342C6
:101310007FF4EAAEFFF7D2FEC01B0228E8D939E716
:1013200091FAA1F3B3FA83F303449B0002261A60F7
:10133000FFF7C4FE074696FAA6F396FAA6F396FAC6
:10134000A6F36A6A96FAA6F3B3FA83F303F01F03CF
:1013500001FA03F313423FF4C7AEFFF7AFFEC01B21
:101360000228E8D916E700BF001002402081901043
:101370008A49CB69D80033D4CB6943F08053CB6121
:10138000CB6903F080530193019B0125844E3368A0
:10139000DA0527D5E368012B34D10B6A43F001034A
:1013A0000B62FFF78BFE022607464FF0010896FA04
:1013B000A6F396FAA6F3002B61D00A6A96FAA6F372
:1013C000B3FA83F303F01F0308FA03F313424ED07A
:1013D000002D3FF48DAECB6923F08053CB6187E6BF
:1013E0000025D3E7336843F480733360FFF766FE6C
:1013F00007463368DB05CDD4FFF760FEC01B6428C9
:10140000F7D9C7E62BBB0B6A23F001030B620B6A0B
:1014100023F004030B62FFF751FE022607464FF04C
:10142000010896FAA6F396FAA6F363B30A6A96FA47
:10143000A6F3B3FA83F303F01F0308FA03F313428E
:10144000C6D0FFF73BFE41F28833C01B9842E8D973
:10145000A0E6052B0B6A03D143F004030B629CE763
:1014600023F001030B620B6A23F0040398E7FFF7F4
:1014700025FE41F28833C01B984298D98AE696FA35
:10148000A6F34A6A9AE796FAA6F34A6ACFE743496F
:101490004B6803F00C03082B3FF451AE022A4FF0C7
:1014A000807354D193FAA3F3B3FA83F303F1845313
:1014B00003F584139B0000221A60FFF7FFFDDFF89D
:1014C000E48006464FF00077012597FAA7F30A68F3
:1014D00097FAA7F3B3FA83F303F01F0305FA03F3B4
:1014E00013422ED1D4E908034A68034322F474124C
:1014F00013434B604FF0807393FAA3F3B3FA83F373
:1015000003F1845303F584139B00264F1D60FFF7FE
:10151000D5FD4FF000750446012695FAA5F30A683B
:1015200095FAA5F3B3FA83F303F01F0306FA03F366
:1015300013427FF4E1ADFFF7C1FD001BB842ECD9C7
:1015400028E6FFF7BBFD801B4045BED922E693FA93
:10155000A3F3B3FA83F303F1845303F584139B00DD
:1015600000221A60FFF7AAFD0E4F04464FF00075E7
:10157000012695FAA5F30A6895FAA5F3B3FA83F361
:1015800003F01F0306FA03F313423FF4B5ADFFF770
:1015900095FD001BB842ECD9FCE500BF00100240ED
:1015A00000700040400D0300504AF8B5136803F086
:1015B00007038B4204461BD32268900724D4D2072A
:1015C0002AD44A4A136803F007038B427AD820686A
:1015D000430700F1828010F0080014D0444A2169CA
:1015E000536823F4605343EAC103536000200AE0C8
:1015F000136823F007030B431360136803F007031A
:101600008B42D9D00120F8BD3948A568436823F042
:10161000F0032B434360D2E76268354D012A27D19E
:101620004FF4003393FAA3F0286893FAA3F3B3FAC4
:1016300083F303F01F0302FA03F30342E2D06B6863
:1016400023F003031A436A60FFF738FD6368012B38
:10165000064641F288371ED16B6803F00C03042B59
:10166000AFD0FFF72BFD801BB842F5D90320CAE7A6
:10167000022A0CBF4FF00073022393FAA3F02E68E6
:1016800093FAA3F3B3FA83F303F01F03012000FAE4
:1016900003F33342D2E7022B0FD16B6803F00C0344
:1016A000082B8ED0FFF70AFD801BB842F5D9DDE785
:1016B000FFF704FD801BB842D8D86B6813F00C0FFD
:1016C000F6D17EE7136823F007030B43136013681A
:1016D00003F007038B4295D179E70549E3684A682F
:1016E00022F4E0621A434A6075E700BF002002401E
:1016F000001002402DE9F74FDFF874815D4C0023A4
:101700004FF001090A6832FA03F502D103B0BDE8CF
:10171000F08F09FA03FA1AEA020200F09E804D687F
:1017200025F0100EBEF1020F14D14FEAD30C00EBDE
:101730008C0C03F0070BDCF820604FEA8B0B0F27B3
:1017400007FA0BF726EA07070E6906FA0BF63E437F
:10175000CCF82060D0F800B04FEA430C032606FA1C
:101760000CF72BEA070BFE4305F0030707FA0CF70B
:101770000EF1FF3E47EA0B07BEF1010F076011D8DB
:10178000876806EA070ECF6807FA0CF747EA0E07E4
:101790008760476827EA0A0AC5F300179F4047EAAF
:1017A0000A074760C76837408E6806FA0CF63E4362
:1017B000C660EE0051D5D8F8186046F00106C8F8AA
:1017C0001860D8F8186023F0030707F1804706F087
:1017D000010607F58037019603F0030E019EBE68EF
:1017E0004FEA8E0E4FF00F0C0CFA0EFCB0F1904F3A
:1017F00026EA0C0C33D0204EB04232D006F580667B
:10180000B04230D006F58066B0422ED006F5806634
:10181000B0420CBF0426052606FA0EF646EA0C0670
:10182000BE602668D74315F4803F0CBF3E40164388
:101830002660666815F4003F0CBF3E4016436660A4
:10184000A66815F4801F0CBF3E401643A660E668EC
:10185000AD0254BF3E401643E660013352E7002616
:10186000DAE70126D8E70226D6E70326D4E700BF49
:101870000010024000040140000400480AB18161E8
:10188000704781627047000002688168C36930B5A3
:10189000056914682943456924F41644294324F052
:1018A0000C041943214311605168C468056A21F48E
:1018B0004051214351609468816924F43064294384
:1018C0002143916062498A4216D101F55841096B62
:1018D00001F003010139022900F2B2805D4CB3F539
:1018E000004F615C77D1082972D8DFE801F0ACAC19
:1018F0002471AC717171A40057498A422CD101F551
:10190000E631096B01F44031B1F5003F00F0908001
:101910000BD8002900F09480B1F5803F00F0908052
:10192000B3F5004F54D0012015E0B1F5403FF7D199
:10193000B3F5004F66D141684B0803F1F47303F52A
:101940009043B3FBF1F300209BB223F00F01C3F3EC
:1019500042030B43D36030BD40498A4210D101F5A8
:10196000E431096B01F44021B1F5002F60D004D8B7
:10197000002965D0B1F5802FD0E7B1F5402FD6E72B
:1019800037498A4210D101F5E231096B01F4401167
:10199000B1F5001F4CD004D8002951D0B1F5801FFB
:1019A000BCE7B1F5401FC2E72E498A42B8D101F524
:1019B000E031096B01F44001B1F5000F38D004D8D3
:1019C00000293DD0B1F5800FA8E7B1F5400FAEE793
:1019D00001200023B9E70829A5D801A353F821F075
:1019E0001D1A00081D1A0008051A0008271900080A
:1019F0001D1A0008271900082719000827190008D0
:101A0000271A000841684B0803F5740303F51053C7
:101A1000B3FBF1F39BB2D36000209CE741684B0815
:101A200003F5E103F4E741684B0803F50043EFE7F2
:101A3000B3F5004FF7D141684B0803F5803380E7D9
:101A4000B3F5004FEAD141684B0803F5610378E72D
:101A500000380140AC2E000800440040004800401F
:101A6000004C004000500040F8B5069F0446154663
:101A70001E462268D36931EA03030CBF0123002309
:101A8000AB4201D0002014E07B1CF3D097B923684F
:101A90001A6822F4D0721A609A6822F001029A60E1
:101AA000202384F8693084F86A30002384F8683091
:101AB0000320F8BDFFF702FB801BB842D9D9E6E747
:101AC00037B504460021C166FFF7F8FA23681B68A2
:101AD0001A07054617D423681B685B070AD56FF001
:101AE0007E43009300222B464FF480012046FFF7EF
:101AF000BBFFA0B92023002084F8693084F8680077
:101B000084F86A300CE06FF07E4300930A46034687
:101B10004FF400112046FFF7A7FF0028DBD0032079
:101B200003B030BD10B5044628B390F8693003F017
:101B3000FF020BB980F868202268242384F86930FA
:101B4000136823F0010313602046FFF79DFE012870
:101B500011D023685A6822F490425A609A6822F0A1
:101B60002A029A601A6842F0010220461A60BDE813
:101B70001040FFF7A5BF012010BDF7B51E4690F835
:101B80006930202B0D46044611464AD1002D46D01F
:101B9000002A44D090F86830012B42D0012380F80D
:101BA00068300023C366212380F86930FFF786FA86
:101BB000A4F850100746A4F85210B4F8522092B27C
:101BC00062B900963B4640212046FFF74DFF98B989
:101BD000202384F8693084F868000EE0B4F85220BD
:101BE0000096013A92B2A4F852203B46002280218E
:101BF0002046FFF739FF10B1032003B0F0BDA36802
:101C00002268B3F5805F07D123692BB935F8023B11
:101C1000C3F308031385D0E715F8013BFAE7012069
:101C2000EBE70220E9E72DE9F3411E4690F86A3020
:101C3000202B0D46044611465CD1002D58D0002AB9
:101C400056D090F86830012B54D0012380F86830CA
:101C500003684FF0FF321A620023C366222380F824
:101C60006A30FFF72BFAA368A4F85810B3F5805F29
:101C70008046A4F85A1015D123698BB940F2FF139E
:101C8000A4F85C30B4F85C70B4F85A0080B280B943
:101C9000202384F86A3084F8680002B0BDE8F0813F
:101CA000FF23EDE7002BEDD12369002BF8D07F2334
:101CB000E6E7B4F85A200096013A92B2A4F85A2006
:101CC0004346002220212046FFF7CEFEA0B9A2689D
:101CD0002368B2F5805F06D1226922B99B8C3B4014
:101CE00025F8023BD0E79B8C3B4005F8013BCBE756
:101CF0000120D2E70220D0E70320CEE70A4A11688C
:101D000008B5034609B909491160106869460344DA
:101D10008B4206D900F034F80C2303604FF0FF30FB
:101D200008BD1360FCE700BFE0050020F8050020B7
:101D300070470000002103E00B4B5B584350043117
:101D40000A480B4B42189A42F6D30A4A02E0002393
:101D500013600432084B9A42F9D3AFF3008000F0CD
:101D600015F8FEF757FFFEE72430000800000020BA
:101D70006400002064000020F4050020FEE700005D
:101D8000014B1868704700BF0000002070B50D4D72
:101D90000D4C641BA4100026A64209D10B4D0C4C1F
:101DA00001F070F8641BA4100026A64205D170BD96
:101DB00055F8043B98470136EEE755F8043B984741
:101DC0000136F2E71C3000081C3000081C30000807
:101DD000203000080A44914200F1FF3300D17047DF
:101DE00010B511F8014B03F8014F9142F9D110BD24
:101DF000884210B501EB020402D98442234607D879
:101E0000431EA14208D011F8012B03F8012FF8E777
:101E1000024401468A4200D110BD13F8014D02F878
:101E2000014DF7E702440346934200D1704703F89F
:101E3000011BF9E738B5104B1D68AB6B0446B3B90D
:101E4000182000F055F80246A86320B90B4B0C4847
:101E5000402100F01DF80B490B4BC0E900130B4B60
:101E600083600B23838100210120C2E90401AB6B55
:101E700000221C615A6138BD00000020B42E000809
:101E8000CB2E00080E33CDAB34126DE6ECDE050030
:101E90001FB514461A46094B1B680546D8684CB155
:101EA000074B0091CDE9013406492B4600F00EF8AE
:101EB00000F086FC044B1C46F3E700BF0000002046
:101EC0004A2F0008572F0008852F00080EB403B5CD
:101ED000014603AB054853F8042B0068019300F05A
:101EE000DBF802B05DF804EB03B07047000000209F
:101EF000024B0146186800F04DB800BF00000020FA
:101F000038B50546002941D051F8043C0C1F002B80
:101F1000B8BFE41800F078FE1D4A136833B9636057
:101F200014602846BDE8384000F074BEA34208D9CA
:101F3000206821188B4201BF19685B68091821606D
:101F4000EDE71A465B680BB1A342FAD91168501845
:101F5000A0420BD120680144501883421160E0D1A7
:101F600018685B68536001441160DAE702D90C23FA
:101F70002B60D6E7206821188B4204BF19685B6884
:101F8000636004BF091821605460CAE738BD00BF10
:101F9000E4050020F8B5CD1C25F0030508350C2D0F
:101FA00038BF0C25002D064601DBA94203D90C23BE
:101FB00033600020F8BD00F027FE21490A6814466E
:101FC0009CB9204F3B6823B92146304600F028FBDE
:101FD00038602946304600F023FB431C23D10C23F4
:101FE0003360304600F016FEE3E723685B1B17D42E
:101FF0000B2B03D923601C44256004E06368A242D4
:102000000CBF0B605360304600F004FE04F10B007F
:10201000231D20F00700C21ACCD01B1AA350C9E719
:1020200022466468CCE7C41C24F00304A042E3D039
:10203000211A304600F0F4FA0130DDD1CFE700BFBD
:10204000E4050020E80500209368013B002B10B454
:10205000936007DA9469A34201DB0A2902D110BC1C
:1020600000F0EEBA1368581C10601970084610BCD6
:102070007047F8B506460F461446D518AC4201D154
:10208000002007E014F8011B3A463046FFF7DCFF5A
:10209000431CF3D1F8BD00002DE9F04F0D469DB073
:1020A00014469846064618B183690BB900F0A6FCA1
:1020B000894B9D421BD175686B6ED90705D4AB89DE
:1020C0009A0502D4A86D00F037FDAB891B0701D536
:1020D0002B69EBB92946304600F004FBC0B16B6EAA
:1020E000DC070ED54FF0FF301DB0BDE8F08F7B4B05
:1020F0009D4201D1B568DFE7794B9D4208BFF56885
:10210000DAE7AB899805EDD4A86D00F016FDE9E794
:102110000023099320238DF82930CDF80C8030233B
:10212000DFF8C0818DF82A304FF0010923469A4626
:1021300013F8012B0AB1252AF9D1BAEB040B0BD005
:102140005B46224629463046FFF793FF013000F0F8
:10215000AA80099A5A4409929AF80030002B00F09C
:10216000A28000234FF0FF32CDE905230AF1010AD6
:10217000049307938DF853301A935446052214F8AC
:10218000011B5848FEF724F8049AD8B9D10644BF79
:1021900020238DF85330130744BF2B238DF8533081
:1021A0009AF800302A2B15D0079A544600204FF099
:1021B0000A0C214611F8013B303B092B4ED9B0B136
:1021C000079214E0A0EB080309FA03F31343049306
:1021D000A246D2E7039B191D1B680391002BBBBFCE
:1021E0005B4242F0020207930793B8BF0492237840
:1021F0002E2B0CD163782A2B35D1039B1A1D1B681B
:102200000392002BB8BF4FF0FF3302340593DFF881
:10221000D8A0217803225046FDF7DAFF40B14023D1
:10222000A0EB0A0003FA00F0049B0343013404937B
:1022300014F8011B2D488DF828100622FDF7C8FF61
:1022400000283FD02A4B1BBB039B073323F0070317
:1022500008330393099B3B44099367E70CFB023265
:102260000C460120A5E700230134059319464FF0E1
:102270000A0C204610F8012B303A092A03D9002B0A
:10228000C5D00591C3E70CFB012104460123F0E70B
:1022900003AB00932A46174B04A93046AFF30080E6
:1022A0000746781CD6D16B6ED90705D4AB899A0541
:1022B00002D4A86D00F041FCAB895B063FF512AF7C
:1022C000099811E703AB00932A460A4B04A930464C
:1022D00000F080F8E4E700BFDC2F0008FC2F0008C6
:1022E000BC2F0008862F00088C2F0008902F0008B4
:1022F00000000000732000082DE9F04716469946BB
:102300008A680B69DDF820809342B8BF13463360BA
:1023100091F8432007460C460AB101333360236825
:10232000990642BF336802333360256815F006050D
:1023300006D104F1190AE36832689B1AAB4226DC25
:1023400094F84320131E226818BF012392062BD451
:1023500004F1430249463846C04701301ED0236885
:10236000E568326803F00603042B08BFAD1AA368C2
:1023700022690CBF25EAE57500259342C4BF9B1A6C
:10238000ED1800261A34B5421AD1002008E00123C6
:10239000524649463846C047013003D14FF0FF301E
:1023A000BDE8F0870135C6E7E1185A1C302081F8F6
:1023B0004300224494F8451082F843100233C7E7E3
:1023C0000123224649463846C0470130E6D001364F
:1023D000D9E700002DE9FF470F7E0C9D782F91462D
:1023E00080460C469A4601F1430207D8622F0AD86C
:1023F000002F00F0D880582F00F0A38004F1420590
:1024000084F842703AE0A7F16303152BF6D801A1D6
:1024100051F823F06D24000881240008FD230008F2
:10242000FD230008FD230008FD2300088124000887
:10243000FD230008FD230008FD230008FD230008FC
:102440008D250008B12400086F250008FD23000831
:10245000FD230008AF250008FD230008B124000873
:10246000FD230008FD230008772500082B681A1DAE
:102470001B682A6004F1420584F842300123A3E07E
:1024800020682968060601F104030AD50E682B604E
:10249000002E03DA2D23764284F843305E480A2367
:1024A00019E00E682B6010F0400F18BF36B2EFE74E
:1024B0002B682068191D2960010601D51E6802E0FD
:1024C0004606FBD51E8854486F2F0CBF08230A23ED
:1024D000002184F843106568A560002DA2BF216823
:1024E00021F0040121600EB9002D4DD01546B6FB38
:1024F000F3F103FB1167C75D05F8017D3746BB4269
:102500000E46F4D9082B0BD12368DE0708D52369C2
:1025100061689942DEBF302305F8013C05F1FF35C3
:10252000521B2261CDF800A04B4603AA214640462B
:10253000FFF7E2FE01304CD14FF0FF3004B0BDE8B0
:10254000F087354881F845702968236851F8046B95
:1025500029601D0614D5DF0744BF43F02003236024
:102560001EB9236823F0200323601023B0E72368FB
:1025700043F0200323607823284884F84530E3E7BC
:10258000590648BFB6B2E6E71546BBE72B68266892
:102590006169181D286035061B6801D5196002E0C5
:1025A0007006FBD51980002323611546BAE72B6816
:1025B0001A1D2A601D68626800212846FDF708FE82
:1025C00008B1401B606063682361002384F84330D6
:1025D000A8E723692A4649464046D0470130ABD098
:1025E00023689B0713D4E068039B9842B8BF184642
:1025F000A4E70123324649464046D04701309BD0EC
:102600000135E36803995B1AAB42F2DCEBE7002586
:1026100004F11906F5E700BF972F0008A82F00085E
:1026200038B5064D0023044608462B60FFF766FBCD
:10263000431C02D12B6803B1236038BDF005002094
:10264000F8B50E461446054618B183690BB900F07B
:10265000D5F9214B9C422BD16C68A369A360A38957
:102660001A072FD523696BB323692068C01A6369E1
:10267000F6B28342374604DC2146284600F02AF9A8
:1026800030BBA368013BA36023685A1C22601E7004
:1026900063690130834204D0A389DB0706D50A2E83
:1026A00004D12146284600F015F988B93846F8BD0E
:1026B0000A4B9C4201D1AC68CFE7094B9C4208BF52
:1026C000EC68CAE72146284600F00CF80028CBD079
:1026D0004FF0FF37EAE700BFDC2F0008FC2F0008AF
:1026E000BC2F0008324B70B51D6806460C4625B15C
:1026F000AB6913B9284600F081F92E4B9C420FD1EB
:102700006C68A389B4F90C2019072CD4DD0611D408
:102710000923336042F04003A3814FF0FF303EE0D5
:10272000254B9C4201D1AC68EBE7244B9C4208BF8F
:10273000EC68E6E7580712D5616B41B104F1440338
:10274000994202D03046FFF7DBFB00236363A38985
:1027500023F02403A3810023636023692360A389FA
:1027600043F00803A38123694BB9A38903F42073C1
:10277000B3F5007F03D02146304600F005FAA0896A
:10278000B4F90C2010F001030AD00023A3606369A0
:102790005B42A361236943B910F08000BAD170BDD8
:1027A000810758BF6369A360F4E70020F7E700BF23
:1027B00000000020DC2F0008FC2F0008BC2F0008C0
:1027C00008B5062000F054FA012000F059FB000083
:1027D0008A89F8B5054610070C4657D44B68002B7C
:1027E00004DC0B6C002B01DC0020F8BDE66A002E37
:1027F000FAD0002312F480522F682B6032D0606D23
:10280000A3895A0705D56368C01A636B0BB1236CA3
:10281000C01A00230246E66A216A2846B047431CD4
:10282000A38906D129681D292CD8294ACA40D60770
:1028300028D500226260D9042269226004D5421C96
:1028400001D12B6803B96065616B2F600029CBD083
:1028500004F14403994202D02846FFF751FB0020BF
:102860006063C2E7216A01232846B047411CC7D1F3
:102870002B68002BC4D01D2B01D0162B01D12F604B
:10288000B2E7A38943F04003A381AEE70F69002FAD
:10289000AAD093070E6808BF4B690F6018BF0023CA
:1028A000F61B8B60002E9FDD216AD4F828C03346CA
:1028B0003A462846E047002806DCA38943F0400357
:1028C000A3814FF0FF3090E70744361AEAE700BFD4
:1028D0000100402038B50B6905460C4613B90025A8
:1028E000284638BD18B183690BB900F087F8144B3E
:1028F0009C421BD16C68B4F90C30002BEFD0626E97
:10290000D00704D4990502D4A06D00F015F928462B
:102910002146FFF75DFF636EDA070546E0D4A38921
:102920009B05DDD4A06D00F008F9D9E7054B9C426A
:1029300001D1AC68DFE7044B9C4208BFEC68DAE7E2
:10294000DC2F0008FC2F0008BC2F0008002310B566
:102950000446C0E90033C0E90433836081814366E3
:10296000C2818361194608225C30FFF75BFA054B90
:102970006362054BA362054BE362054B246223634C
:1029800010BD00BFA92C0008CB2C0008032D0008A7
:10299000272D0008014900F0AFB800BFD528000876
:1029A00070B568224D1E55430E4605F17401FFF7C0
:1029B000F1FA044640B10021C0E900160C30A060D5
:1029C00005F16802FFF72EFA204670BD014800F0BD
:1029D000B3B800BFED050020014800F0AEB800BF5D
:1029E000ED050020014800F0A7B800BFEE0500206B
:1029F000014800F0A2B800BFEE05002010B5044663
:102A0000FFF7F0FFA3691BB1BDE81040FFF7F0BF6F
:102A1000C4E912332365134B134A1B68A262A34215
:102A200004BF0123A361204600F020F86060204627
:102A300000F01CF8A060204600F018F80022E060CA
:102A400004216068FFF782FFA06801220921FFF7D7
:102A50007DFFE06802221221FFF778FF0123A361C6
:102A6000D2E700BFB02E000895290008F8B5074648
:102A7000FFF7ACFF1E4B1E68B36913B93046FFF772
:102A8000BDFF4836D6E90134013B03D533680BB3AB
:102A90003668F7E7B4F90C50D5B9164BE36004F18A
:102AA0005800656600F047F8FFF796FFC4E9015546
:102AB000C4E904552560A5610822294604F15C009B
:102AC000FFF7B0F9C4E90D55C4E912552046F8BD29
:102AD0006834D9E704213846FFF762FF04463060C6
:102AE0000028D5D1FFF778FF0C233B60EEE700BF4D
:102AF000B02E00080100FFFF2DE9F8430646884686
:102B000000F148040027D4E90195B9F1010905D580
:102B10002468002CF7D13846BDE8F883AB89012B37
:102B200007D9B5F90E30013303D029463046C047E6
:102B300007436835E9E770477047704770B50E4640
:102B4000B1F90E10002996B014461D4608DAB6F900
:102B50000C3000222A601A0610D44FF480630EE075
:102B60006A4600F007F90028F1DB019A02F470428E
:102B7000A2F500535A425A412A60EEE74023002052
:102B8000236016B070BD00008B8973B59D070646A3
:102B90000C4607D504F147032360236101236361D9
:102BA00002B070BD01AB6A46FFF7C8FF0099054649
:102BB0003046FFF7EFF948B9B4F90C309A05EFD475
:102BC00023F0030343F00203A381E3E70D4BB36259
:102BD000A389206043F08003A381009B6361019B74
:102BE00020615BB1B4F90E10304600F0D5F828B181
:102BF000A38923F0030343F00103A381A0890543C4
:102C0000A581CDE7952900080148FFF795BF00BFD2
:102C1000EC0500200148FFF790BF00BFEC05002045
:102C20001F2938B504460D4604D9162303604FF01A
:102C3000FF3038BD426C12B152F821304BB92046FA
:102C400000F030F82A4601462046BDE8384000F042
:102C500017B8012B0AD0591C03D116230360012099
:102C6000E7E7002442F82540284698470020E0E79F
:102C7000024B01461868FFF7D3BF00BF00000020D9
:102C800038B5074D00230446084611462B6000F076
:102C9000D7F8431C02D12B6803B1236038BD00BFB5
:102CA000F005002000F0BCB810B50C46B1F90E10CC
:102CB00000F094F80028ABBF636DA3891B1823F4C0
:102CC0008053ACBF6365A38110BD2DE9F0411F4661
:102CD0008B89DB0505460C46164605D5B1F90E1065
:102CE0000223002200F068F8A389B4F90E1023F43F
:102CF0008053A38132463B462846BDE8F04100F0B0
:102D000017B810B50C46B1F90E1000F055F8431C79
:102D1000A38915BF606523F4805343F48053A381D6
:102D200018BFA38110BDB1F90E1000F013B8000058
:102D300038B5074D04460846114600222A601A4657
:102D400000F096F8431C02D12B6803B1236038BD14
:102D5000F005002038B5064D0023044608462B60D8
:102D600000F04EF8431C02D12B6803B1236038BD3C
:102D7000F005002038B5074D0023044608461146EB
:102D80002B6000F045F8431C02D12B6803B123608F
:102D900038BD00BFF005002038B5064D00230446BD
:102DA00008462B6000F044F8431C02D12B6803B1A5
:102DB000236038BDF005002038B5074D04460846AD
:102DC000114600222A601A4600F042F8431C02D144
:102DD0002B6803B1236038BDF005002038B5074DDE
:102DE00004460846114600222A601A4600F038F8C8
:102DF000431C02D12B6803B1236038BDF0050020CD
:102E0000024B58221A604FF0FF307047F005002047
:102E1000024B58221A604FF0FF307047F005002037
:102E2000024B58221A604FF0FF307047F005002027
:102E3000024B58221A600020704700BFF0050020A6
:102E4000024B58221A604FF0FF307047F005002007
:102E5000024B58221A604FF0FF307047F0050020F7
:102E6000024B58221A604FF0FF307047F0050020E7
:102E7000024B58221A604FF0FF307047F0050020D7
:102E8000FEE700BFF8B500BFF8BC08BC9E4670471F
:0C2E9000F8B500BFF8BC08BC9E467047B7
:102E9C003031323334353637383941424344454684
:102EAC0004080200040000205245454E54206D6178
:102EBC006C6C6F6320737563636565646564002F68
:102ECC006D6E742F776F726B73706163652F776F94
:102EDC00726B73706163652F4743432D31302D70D6
:102EEC006970656C696E652F6A656E6B696E732DA2
:102EFC004743432D31302D706970656C696E652DBB
:102F0C0034385F32303230313132345F3136303632
:102F1C003138303634312F7372632F6E65776C69AC
:102F2C00622F6E65776C69622F6C6962632F7374A4
:102F3C00646C69622F72616E646F6D2E63002C205D
:102F4C0066756E6374696F6E3A2000617373657297
:102F5C0074696F6E2022257322206661696C65642A
:102F6C003A2066696C6520222573222C206C696ED0
:102F7C0065202564257325730A00232D302B200032
:102F8C00686C4C0065666745464700303132333417
:102F9C0035363738394142434445460030313233B7
:102FAC003435363738396162636465660000000079
:102FBC000000000000000000000000000000000005
:102FCC0000000000000000000000000000000000F5
:102FDC0000000000000000000000000000000000E5
:102FEC0000000000000000000000000000000000D5
:102FFC0000000000000000000000000000000000C5
:10300C0000000000000000000000000000000000B4
:04301C00B5010008F2
:043020009101000812
:103024000400002000000000DC2F0008FC2F000832
:10303400BC2F000800000000000000000000000099
:10304400000000000000000000000000000000007C
:10305400000000000000000000000000000000006C
:10306400000000000000000000000000000000005C
:10307400000000000000000000000000000000004C
:043084000000000048
:0400000508001D359D
:00000001FF
